:100000000FEF00F0EE6AFFFFEA50E262FBD7E95023
:06001000E162F8D71200C6
:10001800F294D894100000EE1BF011EE00F003ECFF
:1000280000F004EE66F016EE00F003EC00F0C2EF0C
:100038000DF0FE00FFFF0001FEC01BF0FFC01CF02A
:100048001D6B1E6B010EE8CFFFF51200FFFFF3D703
:10005800FFFF0501FF53D8A405D0010E0001FE6F74
:10006800FF6BE8DF6D0E046E4E0E056EC60E066E53
:10007800410E076E1BC000F01CC001F01DC002F04D
:100088001EC003F070EC00F0390E0024E8CF1BF01E
:10009800300E0120E8CF1CF0000E0220E8CF1DF042
:1000A800000E0320E8CF1EF01BC008F01CC009F0AA
:1000B8001DC00AF01EC00BF0100E08C000F009C0E9
:1000C80001F00AC002F00BC003F0F7EC00F07F0E5D
:1000D80001161200FFFFBDD7FFFFE96AEA6AFFFFBA
:1000E8000050086E0150096E02500A6E03500B6EE4
:1000F800026A036A08500402F3CF00F0F4CF01F05B
:100108000502F3500126F450022209500402F3506C
:100118000126F4500222D8B0032A08500602F350F0
:100128000226F450032209500502F3500226F45027
:1001380003220A500402F3500226F4500322085006
:100148000702F350032609500602F35003260A500B
:100158000502F35003260B500402F3500326DBEF8D
:1001680000F0FE00FFFFD96E0001FE51D9CF00F06C
:10017800016AD89000360136D89000360136D890FA
:10018800003601360026000E01220050000FF66EE0
:100198000150F76E060EF7220800FFFFF550120017
:1001A800FFFFE1D7FFFF036A026A016A006AFFFFE7
:1001B800E950EA1008E003C0EDFF02C0EDFF01C0FE
:1001C800EDFF00C0EFFF000CFFFF02500002F3CF6D
:1001D80004F0F4CF05F00102F350052603500002A5
:1001E800F35005261200FFFF046E042A044E000C8B
:0C01F80003340332023201320032F8D727
:10060000003C424242423C000018280808083E00D4
:10061000003C42023C407E00003C420C02423C0056
:1006200000081828487E0800007E407C02423C00FA
:10063000003C407C42423C00007E02040810100056
:10064000003C423C42423C00003C42423E023C00F4
:10065000FFFF836A0A0ED96E02D000F000F0D92E97
:10066000FCD7010E836E340ED96E02D000F000F07C
:10067000D92EFCD71200FFFFECD7FFFF836A0A0ECA
:10068000D96E02D000F000F0D92EFCD7010E836E97
:100690001200FFFFF3D7FFFF836A340ED96E02D03A
:1006A00000F000F0D92EFCD7010E836E0A0ED96E31
:1006B00002D000F000F0D92EFCD71200FFFFECD7DB
:1006C000FFFFD884FFE0D650870FD96EFD0ED76E9E
:1006D000D950D66E836A0A0ED96E02D000F000F0AF
:1006E000D92EFCD7010E836E1200FFFFEAD7FFFF61
:1006F000D96A15D0E16A0FD0D9500A0DE150F3261E
:10070000000EF422270EF324E96E000EF420EA6EA8
:10071000010EEF6EE12A090EE164EED7D92A130E1D
:10072000D964E8D71200FFFFE3D7FFFFD96E280D89
:10073000270EF324E16E000EF420E26E330ED96E24
:1007400003D0010EE76EE652D92EFBD71200FFFF51
:10075000EDD7FFFFD96E0A0D270EF324E16E000ED0
:10076000F420E26E0B0ED96E03D0010EE76EE65256
:10077000D92EFBD71200FFFFEDD7FFFFAFD000014E
:10078000206B1F6B010EE8CF22F0216B020EE8CF29
:1007900024F0236B030EE8CF26F0256B010EE8CF83
:1007A0006DF4040EE8CF6BF4290E95D00001206B98
:1007B000010EE8CF1FF0E8CF22F0E8CF21F0020EC3
:1007C000E8CF24F0010EE8CF23F0020EE8CF26F0A8
:1007D000256B020EE8CF6DF4030EE8CF6BF4310EFB
:1007E0007AD00001206B1F6B010EE8CF22F0216B45
:1007F000020EE8CF24F0236B020EE8CF26F0010EA4
:10080000E8CF25F0020EE8CF6DF4030EE8CF6BF4CD
:10081000A10E61D00001206B1F6B010EE8CF22F00A
:10082000216B020EE8CF24F0236B010EE8CF26F0F7
:10083000E8CF25F0020EE8CF6DF4030EE8CF6BF49D
:10084000F10E49D00001206B010EE8CF1FF0E8CF78
:1008500022F0216B010EE8CF24F0E8CF23F0020E46
:10086000E8CF26F0256B020EE8CF6DF4030EE8CF3B
:100870006BF43D0E30D00001206B1F6B010EE8CFF2
:1008800022F0216B010EE8CF24F0E8CF23F0020E16
:10089000E8CF26F0010EE8CF25F0020EE8CF6DF488
:1008A000030EE8CF6BF4A90E16D00001206B1F6B6E
:1008B000010EE8CF22F0216B010EE8CF24F0E8CF43
:1008C00023F0266B010EE8CF25F0020EE8CF6DF481
:1008D000E8CF6BF4210EE8CF6AF413D06CC4E8FFC4
:1008E000000A01E14CD7010A01E160D7030A01E1E6
:1008F00078D7010A8FE0070AA5E0010ABCE0030AE5
:10090000D4E01200FFFF3AD7FFFFE16ED96A0A0E6A
:10091000026E036A6FC400F0D950020D200EF3245A
:10092000E96E000EF420EA6EEF50016E00500124D3
:10093000006E016AE8EC00F06EC400F0D950020DC0
:100940001F0EF324E96E000EF420EA6EEF50016EE4
:10095000005001240426000E0522270E0424E96E0F
:10096000000E0520EA6EE1CFEFFFD92A030ED9640D
:10097000CED71200FFFFC9D7FFFFD96A0A0E026E59
:10098000036A6FC400F0D950020D200EF324E96E03
:10099000000EF420EA6EEF50016E00500124006E4C
:1009A000016AE8EC00F06EC400F0D950020D1F0E91
:1009B000F324E96E000EF420EA6EEF50016E005051
:1009C00001240426000E0522270E0424E96E000EE1
:1009D0000520EA6EEF50006E020E005CD8A002D037
:1009E000000E05D0D92A030ED964C8D7010E120013
:1009F000FFFFC3D7FFFF2CEC00F00050070BE8CF40
:100A00006CF404016C53D8B402D06C0703D0030E0D
:100A1000E8CF6CF4040EE8CF6EF404016F6BADD632
:100A2000FFFFE9D7FFFF6BC4E1FF6DC46BF4E1CFBB
:100A30006DF4D96AD950020D1F0EF324E96E000E31
:100A4000F420EA6EEF50016ED950020D200EF3240F
:100A5000E16E000EF420E26ED950020D1F0EF32459
:100A6000E96E000EF420EA6EE7CFEFFFD950020DD9
:100A7000200EF324E96E000EF420EA6E6BC400F041
:100A8000FF0E00260150005CEF6ED92A030ED964D8
:100A9000D1D71200FFFFC7D7FFFF6BC4E1FF6DC4C2
:100AA0006BF4E1CF6DF4D96AD950020D200EF32416
:100AB000E96E000EF420EA6EEF50016ED950020D7F
:100AC0001F0EF324E16E000EF420E26ED950020DE9
:100AD000200EF324E96E000EF420EA6EE7CFEFFF5C
:100AE000D950020D1F0EF324E96E000EF420EA6EB9
:100AF0006DC400F0FF0E00260150005CEF6ED92A95
:100B0000030ED964D1D71200FFFFC7D7FFFFD96EFC
:100B1000E1CFF6FFE2CFF7FF6FC4E8FFD9240A0D5B
:100B2000270EF324E8CFE1FF000EF420E8CFE2FF28
:100B30000B0ED96E09D0020EE66006D0F6CFE1FFAB
:100B4000F7CFE2FF000E07D0D92EF5D7F6CFE1FFA1
:100B5000F7CFE2FF010E1200FFFFD9D7FE00FFFF23
:100B6000D96EE1CF00F0E2CF01F0D9CFF6FFDACFB6
:100B7000F7FF0A0D270EF324E8CFE1FF000EF42063
:100B8000E8CFE2FF0001FE510A0D270EF324E8CF63
:100B9000D9FF000EF420E8CFDAFFDE50E66EDE501B
:100BA000E66EDE50E66EDE50E66EDE50E66EDE503D
:100BB000E66EDE50E66EDE50E66EDE50E66EDE502D
:100BC000E66E00C0E1FF01C0E2FFF6CFD9FFF7CF2C
:100BD000DAFF1200FFFFC4D7FFFFD884FFE0D65032
:100BE000870FD96EFD0ED76ED950D66E836A0A0E66
:100BF000D96E02D000F000F0D92EFCD7010E836E22
:100C000080908082640ED96E02D000F000F0D92E60
:100C1000FCD78092D884FFE0D650870FD96EFD0EA6
:100C2000D76ED950D66E836A0A0ED96E02D000F004
:100C300000F0D92EFCD7010E836E000E80B4010E99
:100C4000E8CF67F4D884FFE0D650870FD96EFD0E49
:100C5000D76ED950D66E836A0A0ED96E02D000F0D4
:100C600000F0D92EFCD7010E836E8080640ED96E01
:100C700002D000F000F0D92EFCD78090D884FFE09D
:100C8000D650870FD96EFD0ED76ED950D66E836AB7
:100C90000A0ED96E02D000F000F0D92EFCD7010E5A
:100CA000836ED884FFE0D650870FD96EFD0ED76EC5
:100CB000D950D66E836A0A0ED96E02D000F000F0C9
:100CC000D92EFCD7010E836E8080640ED96E02D0BF
:100CD00000F000F0D92EFCD78090D884FFE0D650E9
:100CE000870FD96EFD0ED76ED950D66E836A0A0E65
:100CF000D96E02D000F000F0D92EFCD7010E836E21
:100D0000D884FFE0D650870FD96EFD0ED76ED9502C
:100D1000D66E836A0A0ED96E02D000F000F0D92E8A
:100D2000FCD7010E836E8080640ED96E02D000F075
:100D300000F0D92EFCD78090D884FFE0D650870FE2
:100D4000D96EFD0ED76ED950D66E836A0A0ED96E53
:100D500002D000F000F0D92EFCD7010E836ED884AB
:100D6000FFE0D650870FD96EFD0ED76ED950D66EE4
:100D7000836A0A0ED96E02D000F000F0D92EFCD79B
:100D8000010E836E8080640ED96E02D000F000F0F8
:100D9000D92EFCD78090D884FFE0D650870FD96E2B
:100DA000FD0ED76ED950D66E836A0A0ED96E02D068
:100DB00000F000F0D92EFCD7010E836ED884FFE03E
:100DC000D650870FD96EFD0ED76ED950D66E836A76
:100DD0000A0ED96E02D000F000F0D92EFCD7010E19
:100DE000836E8080640ED96E02D000F000F0D92EA0
:100DF000FCD78090D884FFE0D650870FD96EFD0EC7
:100E0000D76ED950D66E836A0A0ED96E02D000F022
:100E100000F0D92EFCD7010E836E000E80B4010EB7
:100E2000E8CF66F4D884FFE0D650870FD96EFD0E68
:100E3000D76ED950D66E836A0A0ED96E02D000F0F2
:100E400000F0D92EFCD7010E836E8080640ED96E1F
:100E500002D000F000F0D92EFCD78090D884FFE0BB
:100E6000D650870FD96EFD0ED76ED950D66E836AD5
:100E70000A0ED96E02D000F000F0D92EFCD7010E78
:100E8000836E000E80B4010EE8CF68F4D884FFE0D2
:100E9000D650870FD96EFD0ED76ED950D66E836AA5
:100EA0000A0ED96E02D000F000F0D92EFCD7010E48
:100EB000836E8080640ED96E02D000F000F0D92ECF
:100EC000FCD78090D884FFE0D650870FD96EFD0EF6
:100ED000D76ED950D66E836A0A0ED96E02D000F052
:100EE00000F0D92EFCD7010E836E000E80B4010EE7
:100EF000E8CF69F41200FFFF70D6FFFF190ED96E1C
:100F000013D0D884FFE0D650870FE16EFD0ED76E68
:100F1000E150D66E836A0A0EE16E02D000F000F056
:100F2000E12EFCD7010E836ED92EEBD70001F56BB5
:100F300084D1060E0001F5610ED07F0E006E040E06
:100F4000016EF551005E000E015AFF0E0024F66F8F
:100F5000FF0E0120F76F0B0E0001F46F56D1000158
:100F6000F5510A0D270EF324E16E000EF420E26E17
:100F7000D884FFE0D650870FD96EFD0ED76ED950BA
:100F8000D66E836A0A0ED96E02D000F000F0D92E18
:100F9000FCD7010E836E240ED96E02D000F000F053
:100FA000D92EFCD7890E836E020ED96E02D000F0C6
:100FB00000F0D92EFCD7010E836EE6CF83FF020E20
:100FC000D96E02D000F000F0D92EFCD7010E836E4E
:100FD000E6CF83FF020ED96E02D000F000F0D92ECA
:100FE000FCD7010E836EE6CF83FF020ED96E02D0CE
:100FF00000F000F0D92EFCD7010E836EE6CF83FF00
:10100000020ED96E02D000F000F0D92EFCD7010EEE
:10101000836EE6CF83FF020ED96E02D000F000F09F
:10102000D92EFCD7010E836EE6CF83FF020ED96E58
:1010300002D000F000F0D92EFCD7010E836EE6CF6F
:1010400083FF020ED96E02D000F000F0D92EFCD73B
:10105000010E836EE6CF83FF020ED96E02D000F040
:1010600000F0D92EFCD7010E836EE6CF83FF020E6F
:10107000D96E02D000F000F0D92EFCD7010E836E9D
:10108000E6CF83FF020ED96E02D000F000F0D92E19
:10109000FCD7010E836E890E836E020ED96E02D0CC
:1010A00000F000F0D92EFCD7010E836E060E000171
:1010B000F56139D0080EF46136D0F451060DF551C2
:1010C000F324006E000EF420016ED8900036013635
:1010D000D89000360136D890003601367F0E0024B5
:1010E000F86F040E0120F96FF4510708FE6FF6C087
:1010F000E9FFF7C0EAFFEF50B6EC00F00001EF6F38
:10110000090EE16EF8C0D9FFF9C0DAFF0AD000017C
:10111000EFBF02D0010E01D0FD0EDF6ED890EF3789
:10112000DE52E12EF4D70001F5510A0AD8A46DD0A1
:10113000080EF4616AD0F451300D7F0EF324E16E95
:10114000040EF420E26EE6CF83FFE6CF83FFE6CF06
:1011500083FFE6CF83FFE6CF83FFE6CF83FFE6CFB3
:1011600083FFE6CF83FFE6CF83FFE6CF83FFE6CFA3
:1011700083FFE6CF83FFE6CF83FFE6CF83FFE6CF93
:1011800083FFE6CF83FFE6CF83FFE6CF83FFE6CF83
:1011900083FFE6CF83FFE6CF83FFE6CF83FFE6CF73
:1011A00083FFE6CF83FFE6CF83FFE6CF83FFE6CF63
:1011B00083FFE6CF83FFE6CF83FFE6CF83FFE6CF53
:1011C00083FFE6CF83FFE6CF83FFE6CF83FFE6CF43
:1011D00083FFE6CF83FFE6CF83FFE6CF83FFE6CF33
:1011E00083FFE6CF83FFE6CF83FFE6CF83FFE6CF23
:1011F00083FFE6CF83FFE6CF83FFE6CF83FFE6CF13
:1012000083FFE6CF83FF010E836E0001F42FA7D684
:10121000D884FFE0D650870FD96EFD0ED76ED95017
:10122000D66E836A0A0ED96E02D000F000F0D92E75
:10123000FCD7010E836E0001F52B130E0001F5653E
:1012400078D60B0EE16E9ED0D884FFE0D650870F83
:10125000D96EFD0ED76ED950D66E836A0A0ED96E3E
:1012600002D000F000F0D92EFCD7010E836E240EC0
:10127000D96E02D000F000F0D92EFCD7890E836E13
:10128000020ED96E02D000F000F0D92EFCD7010E6C
:10129000836E890E836E020ED96E02D000F000F0CC
:1012A000D92EFCD7010E836E890E836E020ED96E85
:1012B00002D000F000F0D92EFCD7010E836E890E0B
:1012C000836E020ED96E02D000F000F0D92EFCD74A
:1012D000010E836E890E836E020ED96E02D000F06D
:1012E00000F0D92EFCD7010E836E890E836E020E9C
:1012F000D96E02D000F000F0D92EFCD7010E836E1B
:10130000890E836E020ED96E02D000F000F0D92E45
:10131000FCD7010E836E890E836E020ED96E02D049
:1013200000F000F0D92EFCD7010E836E890E836E7B
:10133000020ED96E02D000F000F0D92EFCD7010EBB
:10134000836E890E836E020ED96E02D000F000F01B
:10135000D92EFCD7010E836E890E836E020ED96ED4
:1013600002D000F000F0D92EFCD7010E836E890E5A
:10137000836E020ED96E02D000F000F0D92EFCD799
:10138000010E836EE12E60D727DC130EE16E13D0C1
:10139000D884FFE0D650870FD96EFD0ED76ED95096
:1013A000D66E836A0A0ED96E02D000F000F0D92EF4
:1013B000FCD7010E836EE12EEBD7D884FFE0060E3A
:1013C000E16E02D028EC03F0E12EFCD7060EE16EB0
:1013D00002D04BEC03F0E12EFCD7050EE16E02D0FB
:1013E00028EC03F0E12EFCD7D650870FD96EFD0E06
:1013F000D76ED950D66E28EC03F03DEC03F0040113
:101400007253D8A4720704017153D8A47107010E56
:101410000001F16FD96AF26B60EC03F0010E84EC0D
:1014200004F060EC03F004017253D8A41ED06FC422
:10143000E8FF6BC400F0016A0026000E0122015093
:10144000800A800F140ED8B4005CD8A003D000012D
:10145000F16B0BD004016F2BBCEC04F00001F16FB9
:10146000F151D8A402D004016F0760EC03F004012D
:101470007153D8A407D004016653D8A403D0010E39
:10148000E8CF71F404017253D8B417D0040171533A
:10149000D8A413D004016853D8A40FD004016E530C
:1014A000D8B40BD06E07BCEC04F00009D8A402D06D
:1014B00004016E2B0A0EE8CF71F460EC03F0040116
:1014C0007253D8B424D004017153D8A420D004019D
:1014D0006953D8A41CD06DC4E8FF6EC400F0016A43
:1014E0000026000E01220150800A800F0A0ED8B497
:1014F000005CD8B00CD004016E2BBCEC04F00009E9
:10150000D8A402D004016E070A0EE8CF71F460EC93
:1015100003F00001F06B04017253D8B437D004011A
:101520007153D8A433D004016753D8A42FD06DC40D
:10153000E8FF6FC400F0016A0026000E012201508E
:10154000800A800F150ED8B4005CD8B01FD06EC4CE
:10155000F3F012EC05F06DC4E8FF6EC400F0016A10
:101560000026000E01220150800A800F0B0ED8B415
:10157000005CD8A005D06DC4E8FF0A08E8CF6EF47F
:10158000010E0001F06F0A0EE8CF71F460EC03F079
:101590000001F051D8B409D0BCEC04F00009D8A483
:1015A00004D0F3C06EF44CEC05F0D96A60EC03F0A3
:1015B0006AC4E8FF84EC04F060EC03F004017253A9
:1015C000D8A41ED00001F151D8A41AD004016F5341
:1015D000D8B416D00001F56B00016BC4E8FFF55DCF
:1015E000D8B00ED0F55100EEFAF0E926000EEA224E
:1015F000F55186EC05F0EF6E0001F227F52BECD7E4
:1016000060EC03F00001F251D8B439D0040179271D
:10161000790EE16E040EE26E060ED96E0CD0E75024
:10162000006E0A0E005CD8A005D0F60EE726E65242
:10163000E72A01D0E652D92EF2D76BC4E8FF0401A5
:101640006F25006E00040001F36F6BC4F5F000011C
:10165000F507F529D8B413D0F55100EEFAF0E926D4
:10166000000EEA22EF50D8A4F2D76FC4E8FFF525A8
:10167000FE6FF351AFEC05F00001F307E8D760EC23
:1016800003F00001F251D8B415D06FC4F5F0050E87
:10169000E16E09D00001F507F551FE6FF351AFEC93
:1016A00005F00001F307E12E01D004D00001F5514F
:1016B000D8A4F0D760EC03F004017253D8A422D070
:1016C0000001F151D8A41ED004016F53D8A403D057
:1016D0000401706B17D00001F251D8B413D0050E7D
:1016E000E16E09D00001F507F551FE6FF351AFEC43
:1016F00005F00001F307E12E01D004D00001F551FF
:10170000D8A4F0D760EC03F004017253D8A41FD022
:101710000001F151D8A41BD004016F53D8B417D0E5
:101720000001F251D8B413D0050EE16E09D00001CA
:10173000F507F551FE6FF351AFEC05F00001F3072B
:10174000E12E01D004D00001F551D8A4F0D760EC0F
:1017500003F004017253D8A41FD00001F151D8A4A2
:101760001BD004016F53D8B417D00001F251D8B484
:1017700013D0050EE16E09D00001F507F551FE6F9B
:10178000F351AFEC05F00001F307E12E01D004D0D6
:101790000001F551D8A4F0D760EC03F004017253B6
:1017A000D8A41FD00001F151D8A41BD004016F535D
:1017B000D8B417D00001F251D8B413D0050EE16EA1
:1017C00009D00001F507F551FE6FF351AFEC05F0BC
:1017D0000001F307E12E01D004D00001F551D8A497
:1017E000F0D760EC03F004017253D8A416D00001C6
:1017F000F151D8A412D004016F53D8B40ED0000117
:10180000F251D8A406D009D00001F507F551A9EC92
:1018100003F00001F551D8A4F7D760EC03F0040100
:101820007253D8A405D00001F151D8B4FAEC04F0F9
:1018300060EC03F004017253D8A409D0040166538C
:10184000D8A402D0050E01D0190EE8CF72F4120010
:10185000FFFF7EEF07F0FFFF190ED96E13D0D8847B
:10186000FFE0D650870FE16EFD0ED76EE150D66EC9
:10187000836A0A0EE16E02D000F000F0E12EFCD780
:10188000010E836ED92EEBD70001F06BF8D0060E57
:101890000001F0610ED0790E006E040E016EF05161
:1018A000005E000E015AFF0E0024F26FFF0E0120B1
:1018B000F36F0B0E0001F16FCAD0D884FFE0D65051
:1018C000870FD96EFD0ED76ED950D66E836A0A0E79
:1018D000D96E02D000F000F0D92EFCD7010E836E35
:1018E000060E0001F06139D0080EF16136D0F151D9
:1018F000060DF051F324006E000EF420016ED89016
:1019000000360136D89000360136D89000360136C0
:101910007F0E0024F46F040E0120F56FF1510708CB
:10192000FE6FF2C0E9FFF3C0EAFFEF50B6EC00F043
:101930000001EF6F090EE16EF4C0D9FFF5C0DAFFC8
:101940000AD00001EFBF02D0010E01D0FD0EDF6E04
:10195000D890EF37DE52E12EF4D70001F0510A0A99
:10196000D8A475D0080EF16172D0320ED96E02D0B3
:1019700000F000F0D92EFCD70001F151300D7F0EA0
:10198000F324E16E040EF420E26EE6CF83FFE6CF8F
:1019900083FFE6CF83FFE6CF83FFE6CF83FFE6CF6B
:1019A00083FFE6CF83FFE6CF83FFE6CF83FFE6CF5B
:1019B00083FFE6CF83FFE6CF83FFE6CF83FFE6CF4B
:1019C00083FFE6CF83FFE6CF83FFE6CF83FFE6CF3B
:1019D00083FFE6CF83FFE6CF83FFE6CF83FFE6CF2B
:1019E00083FFE6CF83FFE6CF83FFE6CF83FFE6CF1B
:1019F00083FFE6CF83FFE6CF83FFE6CF83FFE6CF0B
:101A000083FFE6CF83FFE6CF83FFE6CF83FFE6CFFA
:101A100083FFE6CF83FFE6CF83FFE6CF83FFE6CFEA
:101A200083FFE6CF83FFE6CF83FFE6CF83FFE6CFDA
:101A300083FFE6CF83FFE6CF83FFE6CF83FFE6CFCA
:101A400083FFE6CF83FFE6CF83FF010E836E0001A5
:101A5000F12F33D7D884FFE0D650870FD96EFD0E13
:101A6000D76ED950D66E836A0A0ED96E02D000F0B6
:101A700000F0D92EFCD7010E836E0001F02B130E5F
:101A80000001F06504D70B0ED96E13D0D884FFE0A7
:101A9000D650870FE16EFD0ED76EE150D66E836A89
:101AA0000A0EE16E02D000F000F0E12EFCD7010E2C
:101AB000836ED92EEBD7ECEC05F0130EE16E13D04C
:101AC000D884FFE0D650870FD96EFD0ED76ED9505F
:101AD000D66E836A0A0ED96E02D000F000F0D92EBD
:101AE000FCD7010E836EE12EEBD7D884FFE0060E03
:101AF000E16E02D028EC03F0E12EFCD7060EE16E79
:101B000002D04BEC03F0E12EFCD7050EE16E02D0C3
:101B100028EC03F0E12EFCD7D650870FD96EFD0ECE
:101B2000D76ED950D66E28EC03F03DEC03F060EC94
:101B300003F060EC03F060EC03F060EC03F060ECA9
:101B400003F004016753D8A403D0010EE8CF70F46A
:101B500060EC03F060EC03F060EC03F060EC03F089
:101B600060EC03F060EC03F060EC03F060EC03F079
:101B700060EC03F060EC03F060EC03F060EF03F066
:101B8000FFFF6AD6FFFF0401726B0401716B836A69
:101B90008C6A956AD08EF28EF28CF194D59CD59A8F
:101BA000F294F28A070EC16E040E926E80928090BB
:101BB0000401706BD59E060ED96ED906D928D8B40B
:101BC00022D0D950A96EF2AE02D0D88001D0D890E0
:101BD000F29EF2AC02D0D88201D0D892F29C3F0E95
:101BE000A616A680A850E16EF29ED8B0F28EF29CA6
:101BF000D8B2F28CD95004EE73F0E926000EEA2236
:101C0000E1CFEFFFDAD7D58E04017053D8A402D00C
:101C100022DEFAD7790EE16E040EE26E070ED96E5F
:101C200002D0E76AE652D92EFCD777EC03F0FAEC43
:101C300004F070C400F00004D8A403D07DEC07F0D9
:101C4000F8D7E16A060ED96ED906D928D8B416D0CD
:101C5000D95004EE79F0E926000EEA22EF50016E29
:101C6000D95004EE73F0E926000EEA22EF50006E20
:101C70000150005CE16EE150D8B4E6D7E1AEC4D7C4
:101C8000D59E060ED96ED906D928D8B4BCD7A6B22F
:101C9000FED7D950A96ED95014EE79F0E126000E86
:101CA000E222D95004EE73F0E926000EEA22E7CFD3
:101CB000EFFFEF50A86E3F0EA616D890F2BED88068
:101CC000F29ED892F2BCD882F29CA684550EA76EE2
:101CD000AA0EA76EA682A6B2FED7A198A694D8B0E7
:0A1CE000F28ED8A2D0D7F28CCED736
:00000001FF
